{
  "contractName": "EHRContract",
  "abi": [
    {
      "inputs": [
        {
          "internalType": "uint256",
          "name": "",
          "type": "uint256"
        },
        {
          "internalType": "uint256",
          "name": "",
          "type": "uint256"
        }
      ],
      "name": "medicalRecords",
      "outputs": [
        {
          "internalType": "uint256",
          "name": "date",
          "type": "uint256"
        },
        {
          "internalType": "string",
          "name": "diagnosis",
          "type": "string"
        },
        {
          "internalType": "string",
          "name": "medicines",
          "type": "string"
        }
      ],
      "stateMutability": "view",
      "type": "function",
      "constant": true
    },
    {
      "inputs": [
        {
          "internalType": "uint256",
          "name": "",
          "type": "uint256"
        }
      ],
      "name": "patients",
      "outputs": [
        {
          "internalType": "string",
          "name": "name",
          "type": "string"
        },
        {
          "internalType": "uint256",
          "name": "age",
          "type": "uint256"
        },
        {
          "internalType": "string",
          "name": "gender",
          "type": "string"
        }
      ],
      "stateMutability": "view",
      "type": "function",
      "constant": true
    },
    {
      "inputs": [
        {
          "internalType": "uint256",
          "name": "",
          "type": "uint256"
        }
      ],
      "name": "recordCount",
      "outputs": [
        {
          "internalType": "uint256",
          "name": "",
          "type": "uint256"
        }
      ],
      "stateMutability": "view",
      "type": "function",
      "constant": true
    },
    {
      "inputs": [
        {
          "internalType": "uint256",
          "name": "_patientId",
          "type": "uint256"
        },
        {
          "internalType": "string",
          "name": "_name",
          "type": "string"
        },
        {
          "internalType": "uint256",
          "name": "_age",
          "type": "uint256"
        },
        {
          "internalType": "string",
          "name": "_gender",
          "type": "string"
        }
      ],
      "name": "addPatient",
      "outputs": [],
      "stateMutability": "nonpayable",
      "type": "function"
    },
    {
      "inputs": [
        {
          "internalType": "uint256",
          "name": "_patientId",
          "type": "uint256"
        },
        {
          "internalType": "uint256",
          "name": "_date",
          "type": "uint256"
        },
        {
          "internalType": "string",
          "name": "_diagnosis",
          "type": "string"
        },
        {
          "internalType": "string",
          "name": "_medicines",
          "type": "string"
        }
      ],
      "name": "addMedicalRecord",
      "outputs": [],
      "stateMutability": "nonpayable",
      "type": "function"
    },
    {
      "inputs": [
        {
          "internalType": "uint256",
          "name": "_patientId",
          "type": "uint256"
        }
      ],
      "name": "getPatientDetails",
      "outputs": [
        {
          "internalType": "string",
          "name": "",
          "type": "string"
        },
        {
          "internalType": "uint256",
          "name": "",
          "type": "uint256"
        },
        {
          "internalType": "string",
          "name": "",
          "type": "string"
        }
      ],
      "stateMutability": "view",
      "type": "function",
      "constant": true
    },
    {
      "inputs": [
        {
          "internalType": "uint256",
          "name": "_patientId",
          "type": "uint256"
        }
      ],
      "name": "getMedicalRecords",
      "outputs": [
        {
          "components": [
            {
              "internalType": "uint256",
              "name": "date",
              "type": "uint256"
            },
            {
              "internalType": "string",
              "name": "diagnosis",
              "type": "string"
            },
            {
              "internalType": "string",
              "name": "medicines",
              "type": "string"
            }
          ],
          "internalType": "struct EHRContract.MedicalRecord[]",
          "name": "",
          "type": "tuple[]"
        }
      ],
      "stateMutability": "view",
      "type": "function",
      "constant": true
    }
  ],
  "bytecode": "0x608060405234801561001057600080fd5b50611130806100206000396000f3fe608060405234801561001057600080fd5b506004361061007d5760003560e01c806393119a831161005b57806393119a83146100ec578063dbc9cc531461011e578063ee9613791461014e578063ffbcfac2146101805761007d565b80630f0f51ab14610082578063300c601c1461009e57806355740250146100d0575b600080fd5b61009c60048036038101906100979190610b79565b6101b0565b005b6100b860048036038101906100b39190610c18565b61027e565b6040516100c793929190610cdc565b60405180910390f35b6100ea60048036038101906100e59190610d21565b6103e9565b005b61010660048036038101906101019190610c18565b610469565b60405161011593929190610cdc565b60405180910390f35b61013860048036038101906101339190610c18565b6105a3565b6040516101459190610dc0565b60405180910390f35b61016860048036038101906101639190610ddb565b6105bb565b60405161017793929190610e1b565b60405180910390f35b61019a60048036038101906101959190610c18565b610702565b6040516101a79190610fd2565b60405180910390f35b60006040518060600160405280858152602001848152602001838152509050806002600087815260200190815260200160002060006001600089815260200190815260200160002054815260200190815260200160002060008201518160000155602082015181600101908051906020019061022d929190610925565b50604082015181600201908051906020019061024a929190610925565b5090505060016000868152602001908152602001600020600081548092919061027290611023565b91905055505050505050565b606060006060600080858152602001908152602001600020600001600080868152602001908152602001600020600101546000808781526020019081526020016000206002018280546102d09061109a565b80601f01602080910402602001604051908101604052809291908181526020018280546102fc9061109a565b80156103495780601f1061031e57610100808354040283529160200191610349565b820191906000526020600020905b81548152906001019060200180831161032c57829003601f168201915b5050505050925080805461035c9061109a565b80601f01602080910402602001604051908101604052809291908181526020018280546103889061109a565b80156103d55780601f106103aa576101008083540402835291602001916103d5565b820191906000526020600020905b8154815290600101906020018083116103b857829003601f168201915b505050505090509250925092509193909250565b60006040518060600160405280858152602001848152602001838152509050806000808781526020019081526020016000206000820151816000019080519060200190610437929190610925565b5060208201518160010155604082015181600201908051906020019061045e929190610925565b509050505050505050565b600060205280600052604060002060009150905080600001805461048c9061109a565b80601f01602080910402602001604051908101604052809291908181526020018280546104b89061109a565b80156105055780601f106104da57610100808354040283529160200191610505565b820191906000526020600020905b8154815290600101906020018083116104e857829003601f168201915b5050505050908060010154908060020180546105209061109a565b80601f016020809104026020016040519081016040528092919081815260200182805461054c9061109a565b80156105995780601f1061056e57610100808354040283529160200191610599565b820191906000526020600020905b81548152906001019060200180831161057c57829003601f168201915b5050505050905083565b60016020528060005260406000206000915090505481565b6002602052816000526040600020602052806000526040600020600091509150508060000154908060010180546105f19061109a565b80601f016020809104026020016040519081016040528092919081815260200182805461061d9061109a565b801561066a5780601f1061063f5761010080835404028352916020019161066a565b820191906000526020600020905b81548152906001019060200180831161064d57829003601f168201915b50505050509080600201805461067f9061109a565b80601f01602080910402602001604051908101604052809291908181526020018280546106ab9061109a565b80156106f85780601f106106cd576101008083540402835291602001916106f8565b820191906000526020600020905b8154815290600101906020018083116106db57829003601f168201915b5050505050905083565b60606000600160008481526020019081526020016000205467ffffffffffffffff81111561073357610732610a4e565b5b60405190808252806020026020018201604052801561076c57816020015b6107596109ab565b8152602001906001900390816107515790505b50905060005b600160008581526020019081526020016000205481101561091b57600260008581526020019081526020016000206000828152602001908152602001600020604051806060016040529081600082015481526020016001820180546107d69061109a565b80601f01602080910402602001604051908101604052809291908181526020018280546108029061109a565b801561084f5780601f106108245761010080835404028352916020019161084f565b820191906000526020600020905b81548152906001019060200180831161083257829003601f168201915b505050505081526020016002820180546108689061109a565b80601f01602080910402602001604051908101604052809291908181526020018280546108949061109a565b80156108e15780601f106108b6576101008083540402835291602001916108e1565b820191906000526020600020905b8154815290600101906020018083116108c457829003601f168201915b5050505050815250508282815181106108fd576108fc6110cb565b5b6020026020010181905250808061091390611023565b915050610772565b5080915050919050565b8280546109319061109a565b90600052602060002090601f016020900481019282610953576000855561099a565b82601f1061096c57805160ff191683800117855561099a565b8280016001018555821561099a579182015b8281111561099957825182559160200191906001019061097e565b5b5090506109a791906109cc565b5090565b60405180606001604052806000815260200160608152602001606081525090565b5b808211156109e55760008160009055506001016109cd565b5090565b6000604051905090565b600080fd5b600080fd5b6000819050919050565b610a10816109fd565b8114610a1b57600080fd5b50565b600081359050610a2d81610a07565b92915050565b600080fd5b600080fd5b6000601f19601f8301169050919050565b7f4e487b7100000000000000000000000000000000000000000000000000000000600052604160045260246000fd5b610a8682610a3d565b810181811067ffffffffffffffff82111715610aa557610aa4610a4e565b5b80604052505050565b6000610ab86109e9565b9050610ac48282610a7d565b919050565b600067ffffffffffffffff821115610ae457610ae3610a4e565b5b610aed82610a3d565b9050602081019050919050565b82818337600083830152505050565b6000610b1c610b1784610ac9565b610aae565b905082815260208101848484011115610b3857610b37610a38565b5b610b43848285610afa565b509392505050565b600082601f830112610b6057610b5f610a33565b5b8135610b70848260208601610b09565b91505092915050565b60008060008060808587031215610b9357610b926109f3565b5b6000610ba187828801610a1e565b9450506020610bb287828801610a1e565b935050604085013567ffffffffffffffff811115610bd357610bd26109f8565b5b610bdf87828801610b4b565b925050606085013567ffffffffffffffff811115610c0057610bff6109f8565b5b610c0c87828801610b4b565b91505092959194509250565b600060208284031215610c2e57610c2d6109f3565b5b6000610c3c84828501610a1e565b91505092915050565b600081519050919050565b600082825260208201905092915050565b60005b83811015610c7f578082015181840152602081019050610c64565b83811115610c8e576000848401525b50505050565b6000610c9f82610c45565b610ca98185610c50565b9350610cb9818560208601610c61565b610cc281610a3d565b840191505092915050565b610cd6816109fd565b82525050565b60006060820190508181036000830152610cf68186610c94565b9050610d056020830185610ccd565b8181036040830152610d178184610c94565b9050949350505050565b60008060008060808587031215610d3b57610d3a6109f3565b5b6000610d4987828801610a1e565b945050602085013567ffffffffffffffff811115610d6a57610d696109f8565b5b610d7687828801610b4b565b9350506040610d8787828801610a1e565b925050606085013567ffffffffffffffff811115610da857610da76109f8565b5b610db487828801610b4b565b91505092959194509250565b6000602082019050610dd56000830184610ccd565b92915050565b60008060408385031215610df257610df16109f3565b5b6000610e0085828601610a1e565b9250506020610e1185828601610a1e565b9150509250929050565b6000606082019050610e306000830186610ccd565b8181036020830152610e428185610c94565b90508181036040830152610e568184610c94565b9050949350505050565b600081519050919050565b600082825260208201905092915050565b6000819050602082019050919050565b610e95816109fd565b82525050565b600082825260208201905092915050565b6000610eb782610c45565b610ec18185610e9b565b9350610ed1818560208601610c61565b610eda81610a3d565b840191505092915050565b6000606083016000830151610efd6000860182610e8c565b5060208301518482036020860152610f158282610eac565b91505060408301518482036040860152610f2f8282610eac565b9150508091505092915050565b6000610f488383610ee5565b905092915050565b6000602082019050919050565b6000610f6882610e60565b610f728185610e6b565b935083602082028501610f8485610e7c565b8060005b85811015610fc05784840389528151610fa18582610f3c565b9450610fac83610f50565b925060208a01995050600181019050610f88565b50829750879550505050505092915050565b60006020820190508181036000830152610fec8184610f5d565b905092915050565b7f4e487b7100000000000000000000000000000000000000000000000000000000600052601160045260246000fd5b600061102e826109fd565b91507fffffffffffffffffffffffffffffffffffffffffffffffffffffffffffffffff82036110605761105f610ff4565b5b600182019050919050565b7f4e487b7100000000000000000000000000000000000000000000000000000000600052602260045260246000fd5b600060028204905060018216806110b257607f821691505b6020821081036110c5576110c461106b565b5b50919050565b7f4e487b7100000000000000000000000000000000000000000000000000000000600052603260045260246000fdfea2646970667358221220d8f1497d46d96590eee5ac91f043de8960bd44bba0017c14663cd7bc306ad7e664736f6c634300080d0033",
  "immutableReferences": {},
  "source": "// SPDX-License-Identifier: MIT\r\npragma solidity >=0.4.22 <0.9.0;\r\n\r\ncontract EHRContract {\r\n    // Patient struct to store patient details\r\n    struct Patient {\r\n        string name;\r\n        uint256 age;\r\n        string gender;\r\n    }\r\n\r\n    // MedicalRecord struct to store health records\r\n    struct MedicalRecord {\r\n        uint256 date;\r\n        string diagnosis;\r\n        string medicines;\r\n    }\r\n\r\n    // Mapping to store patient details based on patient ID\r\n    mapping(uint256 => Patient) public patients;\r\n\r\n    // Mapping to store the number of medical records for each patient\r\n    mapping(uint256 => uint256) public recordCount;\r\n\r\n    // Mapping to store medical records for each patient\r\n    mapping(uint256 => mapping(uint256 => MedicalRecord)) public medicalRecords;\r\n\r\n    // Function to add a new patient\r\n    function addPatient(uint256 _patientId, string memory _name, uint256 _age, string memory _gender) public {\r\n        Patient memory newPatient = Patient(_name, _age, _gender);\r\n        patients[_patientId] = newPatient;\r\n    }\r\n\r\n    // Function to add a new medical record linked to a patient\r\n    function addMedicalRecord(uint256 _patientId, uint256 _date, string memory _diagnosis, string memory _medicines) public {\r\n        MedicalRecord memory newRecord = MedicalRecord(_date, _diagnosis, _medicines);\r\n        medicalRecords[_patientId][recordCount[_patientId]] = newRecord;\r\n        recordCount[_patientId]++;\r\n    }\r\n\r\n    // Function to retrieve patient details\r\n    function getPatientDetails(uint256 _patientId) public view returns (string memory, uint256, string memory) {\r\n        return (patients[_patientId].name, patients[_patientId].age, patients[_patientId].gender);\r\n    }\r\n\r\n    // Function to retrieve all medical records of a patient\r\n    function getMedicalRecords(uint256 _patientId) public view returns (MedicalRecord[] memory) {\r\n        MedicalRecord[] memory records = new MedicalRecord[](recordCount[_patientId]);\r\n        for (uint256 i = 0; i < recordCount[_patientId]; i++) {\r\n            records[i] = medicalRecords[_patientId][i];\r\n        }\r\n        return records;\r\n    }\r\n}",
  "sourcePath": "C:\\Users\\Adity\\OneDrive\\Desktop\\snarks\\contracts\\EHRContract.sol",
  "compiler": {
    "name": "solc",
    "version": "0.8.13+commit.abaa5c0e.Emscripten.clang"
  },
  "schemaVersion": "3.4.16",
  "updatedAt": "2024-02-13T19:13:05.029Z",
  "networkType": "ethereum",
  "devdoc": {
    "kind": "dev",
    "methods": {},
    "version": 1
  },
  "userdoc": {
    "kind": "user",
    "methods": {},
    "version": 1
  }
}